:100000000C945E000C9486000C9486000C94860080
:100010000C9486000C9486000C9486000C94950138
:100020000C9486000C9486000C9486000C94860038
:100030000C9486000C9486000C9486000C94860028
:100040000C94AE020C9486000C947C020C94560224
:100050000C9486000C9486000C9486000C94860008
:100060000C9486000C948600000000080002010039
:100070000003040700000000000000000200000070
:1000800000250028002B0000000000240027002A83
:100090000004040404040404040202020202020331
:1000A000030303030301020408102040800102043B
:1000B00008102001020408102000960311241FBE1E
:1000C000CFEFD8E0DEBFCDBF11E0A0E0B1E0E6E9C0
:1000D000F7E002C005900D92A431B107D9F721E0F5
:1000E000A4E1B1E001C01D92A93CB207E1F710E024
:1000F000CEE5D0E004C02197FE010E94C303CD35B8
:10010000D107C9F70E94F8020C94C9030C940000AF
:10011000AF92BF92CF92DF92EF92FF920F931F9315
:10012000CF93DF936C017B018B01040F151FEB0153
:100130005E01AE18BF08C017D10759F06991D6010A
:10014000ED91FC910190F081E02DC6010995892B7C
:1001500079F7C501DF91CF911F910F91FF90EF903B
:10016000DF90CF90BF90AF900895FC01538D448DE8
:10017000252F30E0842F90E0821B930B541710F052
:10018000CF96089501970895FC01918D828D98175F
:1001900061F0A28DAE0FBF2FB11D5D968C91928D37
:1001A0009F5F9F73928F90E008958FEF9FEF089568
:1001B000FC01918D828D981731F0828DE80FF11D31
:1001C000858D90E008958FEF9FEF0895FC01918D4C
:1001D000228D892F90E0805C9F4F821B91098F7345
:1001E000992708958CE291E00E94E60021E0892B96
:1001F00009F420E0822F089580E090E0892B29F017
:100200000E94F20081110C9400000895FC01A48D5D
:10021000A80FB92FB11DA35ABF4F2C91848D90E028
:1002200001968F739927848FA689B7892C93A0890B
:10023000B1898C91837080648C93938D848D981395
:1002400006C00288F389E02D80818F7D8083089528
:10025000EF92FF920F931F93CF93DF93EC0181E016
:10026000888F9B8D8C8D98131AC0E889F9898081BD
:1002700085FF15C09FB7F894EE89FF896083E889F0
:10028000F98980818370806480839FBF81E090E0E2
:10029000DF91CF911F910F91FF90EF900895F62E6F
:1002A0000B8D10E00F5F1F4F0F731127E02E8C8D09
:1002B0008E110CC00FB607FCFACFE889F98980814E
:1002C00085FFF5CFCE010E940601F1CFEB8DEC0F3B
:1002D000FD2FF11DE35AFF4FF0829FB7F8940B8F6B
:1002E000EA89FB8980818062CFCFCF93DF93EC01D5
:1002F000888D8823B9F0AA89BB89E889F9898C910E
:1003000085FD03C0808186FD0DC00FB607FCF7CFC9
:100310008C9185FFF2CF808185FFEDCFCE010E94C9
:100320000601E9CFDF91CF9108951F920F920FB68A
:100330000F9211242F933F938F939F93AF93BF936B
:10034000EF93FF938091280190912901A0912A01B8
:10035000B0912B01892B8A2B8B2BA1F19091270136
:10036000809100008927809300008091280190915E
:100370002901A0912A01B0912B01181619061A061D
:100380001B069CF48091280190912901A0912A01DB
:10039000B0912B010197A109B10980932801909395
:1003A0002901A0932A01B0932B01FF91EF91BF91F6
:1003B000AF919F918F913F912F910F900FBE0F9012
:1003C0001F90189580910001ECE7F0E0E4919FEF19
:1003D00090930001E13009F431C068F1E23009F492
:1003E00033C090E0FC01E859FF4F2491FC01EB552C
:1003F000FF4F3491FC01EF56FF4FE491EE23A9F239
:10040000222351F0233009F43AC078F5213009F461
:100410003CC0223009F43DC0F0E0EE0FFF1FE3586E
:10042000FF4FA591B4918FB7F894EC9130953E238E
:100430003C938FBFBACF10926E00D3CF90916F00D4
:100440009D7F90936F00CDCF909170009D7F909392
:10045000700091E09093B0009091B100987F94600B
:100460009093B1001092B300BCCF2730A9F0283090
:10047000C9F0243089F6809180008F7D03C080917F
:1004800080008F7780938000C7CF84B58F7784BD3D
:10049000C3CF84B58F7DFBCF8091B0008F778093E1
:1004A000B000BACF8091B0008F7DF9CF1F920F922C
:1004B0000FB60F9211242F933F934F935F936F9337
:1004C0007F938F939F93AF93BF93EF93FF938CE2B0
:1004D00091E00E940601FF91EF91BF91AF919F9132
:1004E0008F917F916F915F914F913F912F910F90DD
:1004F0000FBE0F901F9018951F920F920FB60F927C
:1005000011242F938F939F93EF93FF93E0913C01DE
:10051000F0913D018081E0914201F091430182FD23
:100520001BC09081809145018F5F8F7320914601A0
:10053000821741F0E0914501F0E0E45DFE4F958FB8
:1005400080934501FF91EF919F918F912F910F9093
:100550000FBE0F901F9018958081F4CF1F920F92BD
:100560000FB60F9211242F933F938F939F93AF93C6
:10057000BF938091230190912401A0912501B09116
:1005800026013091220123E0230F2D3758F50196E3
:10059000A11DB11D2093220180932301909324017A
:1005A000A0932501B093260180911E0190911F0117
:1005B000A0912001B09121010196A11DB11D809350
:1005C0001E0190931F01A0932001B0932101BF91C0
:1005D000AF919F918F913F912F910F900FBE0F90F0
:1005E0001F90189526E8230F0296A11DB11DD2CFAA
:1005F000789484B5826084BD84B5816084BD85B5FE
:10060000826085BD85B5816085BD80916E00816009
:1006100080936E00109281008091810082608093AF
:1006200081008091810081608093810080918000B1
:100630008160809380008091B10084608093B100DC
:100640008091B00081608093B00080917A008460D6
:1006500080937A0080917A00826080937A00809102
:100660007A00816080937A0080917A00806880931C
:100670007A001092C100EEEAF0E02491EAE9F0E09D
:100680008491882399F090E0880F991FFC01E95725
:10069000FF4FA591B491FC01E358FF4F85919491D0
:1006A0008FB7F894EC91E22BEC938FBFE0913C0173
:1006B000F0913D0182E08083E0913801F0913901B1
:1006C0001082E0913A01F0913B018FEC808310920F
:1006D0004401E0914001F091410186E08083E09186
:1006E0003E01F0913F01808180618083E0913E0175
:1006F000F0913F01808188608083E0913E01F0911C
:100700003F01808180688083E0913E01F0913F014C
:1007100080818F7D8083C0E0D0E02097F1F30E943C
:10072000F2008823D1F30E940000F7CFECE2F1E061
:100730001382128288EE93E0A0E0B0E08483958378
:10074000A683B78385E091E09183808385EC90E078
:100750009587848784EC90E09787868780EC90E08B
:10076000918B808B81EC90E0938B828B82EC90E07C
:10077000958B848B86EC90E0978B868B118E128EF6
:10078000138E148E0895EE0FFF1F0590F491E02D47
:060790000994F894FFCF6C
:10079600FF0000000028018800B5007501E600C4CE
:0407A60000D8000077
:00000001FF
